{
  "contractName": "AaveVault",
  "abi": [
    {
      "inputs": [
        {
          "internalType": "contract IPool",
          "name": "_lendingPool",
          "type": "address"
        },
        {
          "internalType": "contract IERC20",
          "name": "_stablecoin",
          "type": "address"
        },
        {
          "internalType": "address",
          "name": "_priceFeedAddress",
          "type": "address"
        }
      ],
      "stateMutability": "nonpayable",
      "type": "constructor"
    },
    {
      "inputs": [
        {
          "internalType": "address",
          "name": "owner",
          "type": "address"
        }
      ],
      "name": "OwnableInvalidOwner",
      "type": "error"
    },
    {
      "inputs": [
        {
          "internalType": "address",
          "name": "account",
          "type": "address"
        }
      ],
      "name": "OwnableUnauthorizedAccount",
      "type": "error"
    },
    {
      "anonymous": false,
      "inputs": [
        {
          "indexed": true,
          "internalType": "address",
          "name": "previousOwner",
          "type": "address"
        },
        {
          "indexed": true,
          "internalType": "address",
          "name": "newOwner",
          "type": "address"
        }
      ],
      "name": "OwnershipTransferred",
      "type": "event"
    },
    {
      "inputs": [],
      "name": "lendingPool",
      "outputs": [
        {
          "internalType": "contract IPool",
          "name": "",
          "type": "address"
        }
      ],
      "stateMutability": "view",
      "type": "function"
    },
    {
      "inputs": [],
      "name": "owner",
      "outputs": [
        {
          "internalType": "address",
          "name": "",
          "type": "address"
        }
      ],
      "stateMutability": "view",
      "type": "function"
    },
    {
      "inputs": [],
      "name": "priceFeed",
      "outputs": [
        {
          "internalType": "contract AggregatorV3Interface",
          "name": "",
          "type": "address"
        }
      ],
      "stateMutability": "view",
      "type": "function"
    },
    {
      "inputs": [],
      "name": "renounceOwnership",
      "outputs": [],
      "stateMutability": "nonpayable",
      "type": "function"
    },
    {
      "inputs": [],
      "name": "stablecoin",
      "outputs": [
        {
          "internalType": "contract IERC20",
          "name": "",
          "type": "address"
        }
      ],
      "stateMutability": "view",
      "type": "function"
    },
    {
      "inputs": [
        {
          "internalType": "address",
          "name": "newOwner",
          "type": "address"
        }
      ],
      "name": "transferOwnership",
      "outputs": [],
      "stateMutability": "nonpayable",
      "type": "function"
    },
    {
      "inputs": [
        {
          "internalType": "uint256",
          "name": "amount",
          "type": "uint256"
        }
      ],
      "name": "deposit",
      "outputs": [],
      "stateMutability": "nonpayable",
      "type": "function"
    },
    {
      "inputs": [
        {
          "internalType": "uint256",
          "name": "amount",
          "type": "uint256"
        }
      ],
      "name": "withdraw",
      "outputs": [],
      "stateMutability": "nonpayable",
      "type": "function"
    },
    {
      "inputs": [],
      "name": "getBalance",
      "outputs": [
        {
          "internalType": "uint256",
          "name": "",
          "type": "uint256"
        }
      ],
      "stateMutability": "view",
      "type": "function"
    }
  ],
  "bytecode": "0x608060405234801562000010575f80fd5b50604051620012333803806200123383398181016040528101906200003691906200032f565b335f73ffffffffffffffffffffffffffffffffffffffff168173ffffffffffffffffffffffffffffffffffffffff1603620000aa575f6040517f1e4fbdf7000000000000000000000000000000000000000000000000000000008152600401620000a1919062000399565b60405180910390fd5b620000bb816200018560201b60201c565b508260015f6101000a81548173ffffffffffffffffffffffffffffffffffffffff021916908373ffffffffffffffffffffffffffffffffffffffff1602179055508160025f6101000a81548173ffffffffffffffffffffffffffffffffffffffff021916908373ffffffffffffffffffffffffffffffffffffffff1602179055508060035f6101000a81548173ffffffffffffffffffffffffffffffffffffffff021916908373ffffffffffffffffffffffffffffffffffffffff160217905550505050620003b4565b5f805f9054906101000a900473ffffffffffffffffffffffffffffffffffffffff169050815f806101000a81548173ffffffffffffffffffffffffffffffffffffffff021916908373ffffffffffffffffffffffffffffffffffffffff1602179055508173ffffffffffffffffffffffffffffffffffffffff168173ffffffffffffffffffffffffffffffffffffffff167f8be0079c531659141344cd1fd0a4f28419497f9722a3daafe3b4186f6b6457e060405160405180910390a35050565b5f80fd5b5f73ffffffffffffffffffffffffffffffffffffffff82169050919050565b5f62000275826200024a565b9050919050565b5f620002888262000269565b9050919050565b6200029a816200027c565b8114620002a5575f80fd5b50565b5f81519050620002b8816200028f565b92915050565b5f620002ca8262000269565b9050919050565b620002dc81620002be565b8114620002e7575f80fd5b50565b5f81519050620002fa81620002d1565b92915050565b6200030b8162000269565b811462000316575f80fd5b50565b5f81519050620003298162000300565b92915050565b5f805f6060848603121562000349576200034862000246565b5b5f6200035886828701620002a8565b93505060206200036b86828701620002ea565b92505060406200037e8682870162000319565b9150509250925092565b620003938162000269565b82525050565b5f602082019050620003ae5f83018462000388565b92915050565b610e7180620003c25f395ff3fe608060405234801561000f575f80fd5b5060043610610091575f3560e01c80638da5cb5b116100645780638da5cb5b146100f7578063a59a997314610115578063b6b55f2514610133578063e9cbd8221461014f578063f2fde38b1461016d57610091565b806312065fe0146100955780632e1a7d4d146100b3578063715018a6146100cf578063741bef1a146100d9575b5f80fd5b61009d610189565b6040516100aa919061087b565b60405180910390f35b6100cd60048036038101906100c891906108c2565b610228565b005b6100d7610335565b005b6100e1610348565b6040516100ee9190610967565b60405180910390f35b6100ff61036d565b60405161010c91906109a0565b60405180910390f35b61011d610394565b60405161012a91906109d9565b60405180910390f35b61014d600480360381019061014891906108c2565b6103b9565b005b61015761057f565b6040516101649190610a12565b60405180910390f35b61018760048036038101906101829190610a55565b6105a4565b005b5f60025f9054906101000a900473ffffffffffffffffffffffffffffffffffffffff1673ffffffffffffffffffffffffffffffffffffffff166370a08231306040518263ffffffff1660e01b81526004016101e491906109a0565b602060405180830381865afa1580156101ff573d5f803e3d5ffd5b505050506040513d601f19601f820116820180604052508101906102239190610a94565b905090565b610230610628565b5f8111610272576040517f08c379a000000000000000000000000000000000000000000000000000000000815260040161026990610b19565b60405180910390fd5b60015f9054906101000a900473ffffffffffffffffffffffffffffffffffffffff1673ffffffffffffffffffffffffffffffffffffffff166369328dec60025f9054906101000a900473ffffffffffffffffffffffffffffffffffffffff1683306040518463ffffffff1660e01b81526004016102f193929190610b37565b6020604051808303815f875af115801561030d573d5f803e3d5ffd5b505050506040513d601f19601f820116820180604052508101906103319190610a94565b5050565b61033d610628565b6103465f6106af565b565b60035f9054906101000a900473ffffffffffffffffffffffffffffffffffffffff1681565b5f805f9054906101000a900473ffffffffffffffffffffffffffffffffffffffff16905090565b60015f9054906101000a900473ffffffffffffffffffffffffffffffffffffffff1681565b6103c1610628565b5f8111610403576040517f08c379a00000000000000000000000000000000000000000000000000000000081526004016103fa90610b19565b60405180910390fd5b5f61040d82610770565b905060025f9054906101000a900473ffffffffffffffffffffffffffffffffffffffff1673ffffffffffffffffffffffffffffffffffffffff1663095ea7b360015f9054906101000a900473ffffffffffffffffffffffffffffffffffffffff16836040518363ffffffff1660e01b815260040161048c929190610b6c565b6020604051808303815f875af11580156104a8573d5f803e3d5ffd5b505050506040513d601f19601f820116820180604052508101906104cc9190610bc8565b5060015f9054906101000a900473ffffffffffffffffffffffffffffffffffffffff1673ffffffffffffffffffffffffffffffffffffffff1663e8eda9df60025f9054906101000a900473ffffffffffffffffffffffffffffffffffffffff1683305f6040518563ffffffff1660e01b815260040161054e9493929190610c39565b5f604051808303815f87803b158015610565575f80fd5b505af1158015610577573d5f803e3d5ffd5b505050505050565b60025f9054906101000a900473ffffffffffffffffffffffffffffffffffffffff1681565b6105ac610628565b5f73ffffffffffffffffffffffffffffffffffffffff168173ffffffffffffffffffffffffffffffffffffffff160361061c575f6040517f1e4fbdf700000000000000000000000000000000000000000000000000000000815260040161061391906109a0565b60405180910390fd5b610625816106af565b50565b61063061085c565b73ffffffffffffffffffffffffffffffffffffffff1661064e61036d565b73ffffffffffffffffffffffffffffffffffffffff16146106ad5761067161085c565b6040517f118cdaa70000000000000000000000000000000000000000000000000000000081526004016106a491906109a0565b60405180910390fd5b565b5f805f9054906101000a900473ffffffffffffffffffffffffffffffffffffffff169050815f806101000a81548173ffffffffffffffffffffffffffffffffffffffff021916908373ffffffffffffffffffffffffffffffffffffffff1602179055508173ffffffffffffffffffffffffffffffffffffffff168173ffffffffffffffffffffffffffffffffffffffff167f8be0079c531659141344cd1fd0a4f28419497f9722a3daafe3b4186f6b6457e060405160405180910390a35050565b5f8060035f9054906101000a900473ffffffffffffffffffffffffffffffffffffffff1673ffffffffffffffffffffffffffffffffffffffff1663feaf968c6040518163ffffffff1660e01b815260040160a060405180830381865afa1580156107dc573d5f803e3d5ffd5b505050506040513d601f19601f820116820180604052508101906108009190610cee565b5050509150505f8113610848576040517f08c379a000000000000000000000000000000000000000000000000000000000815260040161083f90610daf565b60405180910390fd5b80836108549190610dfa565b915050919050565b5f33905090565b5f819050919050565b61087581610863565b82525050565b5f60208201905061088e5f83018461086c565b92915050565b5f80fd5b6108a181610863565b81146108ab575f80fd5b50565b5f813590506108bc81610898565b92915050565b5f602082840312156108d7576108d6610894565b5b5f6108e4848285016108ae565b91505092915050565b5f73ffffffffffffffffffffffffffffffffffffffff82169050919050565b5f819050919050565b5f61092f61092a610925846108ed565b61090c565b6108ed565b9050919050565b5f61094082610915565b9050919050565b5f61095182610936565b9050919050565b61096181610947565b82525050565b5f60208201905061097a5f830184610958565b92915050565b5f61098a826108ed565b9050919050565b61099a81610980565b82525050565b5f6020820190506109b35f830184610991565b92915050565b5f6109c382610936565b9050919050565b6109d3816109b9565b82525050565b5f6020820190506109ec5f8301846109ca565b92915050565b5f6109fc82610936565b9050919050565b610a0c816109f2565b82525050565b5f602082019050610a255f830184610a03565b92915050565b610a3481610980565b8114610a3e575f80fd5b50565b5f81359050610a4f81610a2b565b92915050565b5f60208284031215610a6a57610a69610894565b5b5f610a7784828501610a41565b91505092915050565b5f81519050610a8e81610898565b92915050565b5f60208284031215610aa957610aa8610894565b5b5f610ab684828501610a80565b91505092915050565b5f82825260208201905092915050565b7f416d6f756e74206d7573742062652067726561746572207468616e20300000005f82015250565b5f610b03601d83610abf565b9150610b0e82610acf565b602082019050919050565b5f6020820190508181035f830152610b3081610af7565b9050919050565b5f606082019050610b4a5f830186610991565b610b57602083018561086c565b610b646040830184610991565b949350505050565b5f604082019050610b7f5f830185610991565b610b8c602083018461086c565b9392505050565b5f8115159050919050565b610ba781610b93565b8114610bb1575f80fd5b50565b5f81519050610bc281610b9e565b92915050565b5f60208284031215610bdd57610bdc610894565b5b5f610bea84828501610bb4565b91505092915050565b5f819050919050565b5f61ffff82169050919050565b5f610c23610c1e610c1984610bf3565b61090c565b610bfc565b9050919050565b610c3381610c09565b82525050565b5f608082019050610c4c5f830187610991565b610c59602083018661086c565b610c666040830185610991565b610c736060830184610c2a565b95945050505050565b5f69ffffffffffffffffffff82169050919050565b610c9a81610c7c565b8114610ca4575f80fd5b50565b5f81519050610cb581610c91565b92915050565b5f819050919050565b610ccd81610cbb565b8114610cd7575f80fd5b50565b5f81519050610ce881610cc4565b92915050565b5f805f805f60a08688031215610d0757610d06610894565b5b5f610d1488828901610ca7565b9550506020610d2588828901610cda565b9450506040610d3688828901610a80565b9350506060610d4788828901610a80565b9250506080610d5888828901610ca7565b9150509295509295909350565b7f496e76616c69642070726963652066726f6d20436861696e6c696e6b000000005f82015250565b5f610d99601c83610abf565b9150610da482610d65565b602082019050919050565b5f6020820190508181035f830152610dc681610d8d565b9050919050565b7f4e487b71000000000000000000000000000000000000000000000000000000005f52601160045260245ffd5b5f610e0482610863565b9150610e0f83610863565b9250828202610e1d81610863565b91508282048414831517610e3457610e33610dcd565b5b509291505056fea26469706673582212207007ce49a1e90edb84588b9514ed00773a71a37d9d8203cd967d767ee089298064736f6c63430008140033",
  "immutableReferences": {},
  "source": "// SPDX-License-Identifier: MIT\r\npragma solidity ^0.8.0;\r\n\r\nimport \"@openzeppelin/contracts/token/ERC20/IERC20.sol\";\r\nimport \"@aave/core-v3/contracts/interfaces/IPool.sol\";\r\nimport \"@chainlink/contracts/src/v0.8/interfaces/AggregatorV3Interface.sol\";\r\nimport \"@openzeppelin/contracts/access/Ownable.sol\";\r\nimport \"../contracts/interfaces/IAaveVault.sol\";\r\n\r\n\r\ncontract AaveVault is IAaveVault, Ownable {\r\n    IPool public lendingPool;\r\n    IERC20 public stablecoin;\r\n\r\n    AggregatorV3Interface public priceFeed; // Chainlink price feed\r\n\r\n\r\n    constructor(IPool _lendingPool, IERC20 _stablecoin, address _priceFeedAddress) Ownable(msg.sender){\r\n        lendingPool = _lendingPool;\r\n        stablecoin = _stablecoin;\r\n        priceFeed = AggregatorV3Interface(_priceFeedAddress);\r\n    }\r\n\r\n    function deposit(uint256 amount) external override onlyOwner {\r\n        require(amount > 0, \"Amount must be greater than 0\");\r\n\r\n        // Get the latest price from Chainlink\r\n        uint256 equivalentValue = getEquivalentValue(amount);\r\n\r\n        // Approve lendingPool to transfer stablecoin\r\n        stablecoin.approve(address(lendingPool), equivalentValue);\r\n\r\n        // Deposit into Aave\r\n        lendingPool.deposit(address(stablecoin), equivalentValue, address(this), 0);\r\n    }\r\n\r\n    function withdraw(uint256 amount) external override onlyOwner {\r\n        require(amount > 0, \"Amount must be greater than 0\");\r\n\r\n        // Withdraw from Aave\r\n        lendingPool.withdraw(address(stablecoin), amount, address(this));\r\n    }\r\n\r\n    function getBalance() external view override returns (uint256) {\r\n        return stablecoin.balanceOf(address(this));\r\n    }\r\n\r\n    function getEquivalentValue(uint256 amount) internal view returns (uint256) {\r\n        (, int256 price, , ,) = priceFeed.latestRoundData();\r\n        require(price > 0, \"Invalid price from Chainlink\");\r\n        \r\n        return amount*uint256(price);\r\n    }\r\n}\r\n",
  "sourcePath": "C:\\Users\\tassm\\Documents\\eth_fund\\contracts\\AaveVault.sol",
  "compiler": {
    "name": "solc",
    "version": "0.8.20+commit.a1b79de6.Emscripten.clang"
  },
  "schemaVersion": "3.4.14",
  "updatedAt": "2024-01-19T03:24:00.341Z",
  "devdoc": {
    "errors": {
      "OwnableInvalidOwner(address)": [
        {
          "details": "The owner is not a valid owner account. (eg. `address(0)`)"
        }
      ],
      "OwnableUnauthorizedAccount(address)": [
        {
          "details": "The caller account is not authorized to perform an operation."
        }
      ]
    },
    "kind": "dev",
    "methods": {
      "owner()": {
        "details": "Returns the address of the current owner."
      },
      "renounceOwnership()": {
        "details": "Leaves the contract without owner. It will not be possible to call `onlyOwner` functions. Can only be called by the current owner. NOTE: Renouncing ownership will leave the contract without an owner, thereby disabling any functionality that is only available to the owner."
      },
      "transferOwnership(address)": {
        "details": "Transfers ownership of the contract to a new account (`newOwner`). Can only be called by the current owner."
      }
    },
    "version": 1
  },
  "userdoc": {
    "kind": "user",
    "methods": {},
    "version": 1
  }
}