{
  "contractName": "Crowdfunding",
  "abi": [
    {
      "inputs": [
        {
          "internalType": "address",
          "name": "_projectOwner",
          "type": "address"
        },
        {
          "internalType": "contract IERC20",
          "name": "_stablecoin",
          "type": "address"
        },
        {
          "internalType": "uint256",
          "name": "_targetFunding",
          "type": "uint256"
        },
        {
          "internalType": "contract AaveVault",
          "name": "_aaveVault",
          "type": "address"
        }
      ],
      "stateMutability": "nonpayable",
      "type": "constructor"
    },
    {
      "inputs": [
        {
          "internalType": "address",
          "name": "owner",
          "type": "address"
        }
      ],
      "name": "OwnableInvalidOwner",
      "type": "error"
    },
    {
      "inputs": [
        {
          "internalType": "address",
          "name": "account",
          "type": "address"
        }
      ],
      "name": "OwnableUnauthorizedAccount",
      "type": "error"
    },
    {
      "anonymous": false,
      "inputs": [
        {
          "indexed": true,
          "internalType": "address",
          "name": "contributor",
          "type": "address"
        },
        {
          "indexed": false,
          "internalType": "uint256",
          "name": "amount",
          "type": "uint256"
        }
      ],
      "name": "ContributionReceived",
      "type": "event"
    },
    {
      "anonymous": false,
      "inputs": [],
      "name": "FundingFinalized",
      "type": "event"
    },
    {
      "anonymous": false,
      "inputs": [
        {
          "indexed": true,
          "internalType": "address",
          "name": "previousOwner",
          "type": "address"
        },
        {
          "indexed": true,
          "internalType": "address",
          "name": "newOwner",
          "type": "address"
        }
      ],
      "name": "OwnershipTransferred",
      "type": "event"
    },
    {
      "inputs": [],
      "name": "aaveVault",
      "outputs": [
        {
          "internalType": "contract AaveVault",
          "name": "",
          "type": "address"
        }
      ],
      "stateMutability": "view",
      "type": "function"
    },
    {
      "inputs": [
        {
          "internalType": "address",
          "name": "",
          "type": "address"
        }
      ],
      "name": "contributions",
      "outputs": [
        {
          "internalType": "uint256",
          "name": "",
          "type": "uint256"
        }
      ],
      "stateMutability": "view",
      "type": "function"
    },
    {
      "inputs": [],
      "name": "fundingStatus",
      "outputs": [
        {
          "internalType": "enum FundingStatus",
          "name": "",
          "type": "uint8"
        }
      ],
      "stateMutability": "view",
      "type": "function"
    },
    {
      "inputs": [],
      "name": "owner",
      "outputs": [
        {
          "internalType": "address",
          "name": "",
          "type": "address"
        }
      ],
      "stateMutability": "view",
      "type": "function"
    },
    {
      "inputs": [],
      "name": "projectOwner",
      "outputs": [
        {
          "internalType": "address",
          "name": "",
          "type": "address"
        }
      ],
      "stateMutability": "view",
      "type": "function"
    },
    {
      "inputs": [],
      "name": "renounceOwnership",
      "outputs": [],
      "stateMutability": "nonpayable",
      "type": "function"
    },
    {
      "inputs": [],
      "name": "stablecoin",
      "outputs": [
        {
          "internalType": "contract IERC20",
          "name": "",
          "type": "address"
        }
      ],
      "stateMutability": "view",
      "type": "function"
    },
    {
      "inputs": [],
      "name": "targetFunding",
      "outputs": [
        {
          "internalType": "uint256",
          "name": "",
          "type": "uint256"
        }
      ],
      "stateMutability": "view",
      "type": "function"
    },
    {
      "inputs": [],
      "name": "totalFunding",
      "outputs": [
        {
          "internalType": "uint256",
          "name": "",
          "type": "uint256"
        }
      ],
      "stateMutability": "view",
      "type": "function"
    },
    {
      "inputs": [
        {
          "internalType": "address",
          "name": "newOwner",
          "type": "address"
        }
      ],
      "name": "transferOwnership",
      "outputs": [],
      "stateMutability": "nonpayable",
      "type": "function"
    },
    {
      "inputs": [
        {
          "internalType": "uint256",
          "name": "amount",
          "type": "uint256"
        }
      ],
      "name": "contribute",
      "outputs": [],
      "stateMutability": "nonpayable",
      "type": "function"
    },
    {
      "inputs": [],
      "name": "withdraw",
      "outputs": [],
      "stateMutability": "nonpayable",
      "type": "function"
    },
    {
      "inputs": [
        {
          "internalType": "address",
          "name": "contributor",
          "type": "address"
        }
      ],
      "name": "getContribution",
      "outputs": [
        {
          "internalType": "uint256",
          "name": "",
          "type": "uint256"
        }
      ],
      "stateMutability": "view",
      "type": "function"
    },
    {
      "inputs": [],
      "name": "getFundingStatus",
      "outputs": [
        {
          "internalType": "uint256",
          "name": "",
          "type": "uint256"
        }
      ],
      "stateMutability": "view",
      "type": "function"
    },
    {
      "inputs": [],
      "name": "getTargetFunding",
      "outputs": [
        {
          "internalType": "uint256",
          "name": "",
          "type": "uint256"
        }
      ],
      "stateMutability": "view",
      "type": "function"
    },
    {
      "inputs": [],
      "name": "finalizeFunding",
      "outputs": [],
      "stateMutability": "nonpayable",
      "type": "function"
    }
  ],
  "bytecode": "0x608060405234801562000010575f80fd5b50604051620017423803806200174283398181016040528101906200003691906200039c565b335f73ffffffffffffffffffffffffffffffffffffffff168173ffffffffffffffffffffffffffffffffffffffff1603620000aa575f6040517f1e4fbdf7000000000000000000000000000000000000000000000000000000008152600401620000a191906200041c565b60405180910390fd5b620000bb81620001ba60201b60201c565b508360015f6101000a81548173ffffffffffffffffffffffffffffffffffffffff021916908373ffffffffffffffffffffffffffffffffffffffff1602179055508260025f6101000a81548173ffffffffffffffffffffffffffffffffffffffff021916908373ffffffffffffffffffffffffffffffffffffffff160217905550816003819055505f60065f6101000a81548160ff021916908360028111156200016a576200016962000437565b5b021790555080600660016101000a81548173ffffffffffffffffffffffffffffffffffffffff021916908373ffffffffffffffffffffffffffffffffffffffff1602179055505050505062000464565b5f805f9054906101000a900473ffffffffffffffffffffffffffffffffffffffff169050815f806101000a81548173ffffffffffffffffffffffffffffffffffffffff021916908373ffffffffffffffffffffffffffffffffffffffff1602179055508173ffffffffffffffffffffffffffffffffffffffff168173ffffffffffffffffffffffffffffffffffffffff167f8be0079c531659141344cd1fd0a4f28419497f9722a3daafe3b4186f6b6457e060405160405180910390a35050565b5f80fd5b5f73ffffffffffffffffffffffffffffffffffffffff82169050919050565b5f620002aa826200027f565b9050919050565b620002bc816200029e565b8114620002c7575f80fd5b50565b5f81519050620002da81620002b1565b92915050565b5f620002ec826200029e565b9050919050565b620002fe81620002e0565b811462000309575f80fd5b50565b5f815190506200031c81620002f3565b92915050565b5f819050919050565b620003368162000322565b811462000341575f80fd5b50565b5f8151905062000354816200032b565b92915050565b5f62000366826200029e565b9050919050565b62000378816200035a565b811462000383575f80fd5b50565b5f8151905062000396816200036d565b92915050565b5f805f8060808587031215620003b757620003b66200027b565b5b5f620003c687828801620002ca565b9450506020620003d9878288016200030c565b9350506040620003ec8782880162000344565b9250506060620003ff8782880162000386565b91505092959194509250565b62000416816200029e565b82525050565b5f602082019050620004315f8301846200040b565b92915050565b7f4e487b71000000000000000000000000000000000000000000000000000000005f52602160045260245ffd5b6112d080620004725f395ff3fe608060405234801561000f575f80fd5b50600436106100fe575f3560e01c8063abe2202d11610095578063f2dfc3fc11610064578063f2dfc3fc14610250578063f2fde38b1461026e578063f4d424531461028a578063fe47a8a7146102a8576100fe565b8063abe2202d146101da578063c1cbbca7146101f8578063d6b3798a14610214578063e9cbd82214610232576100fe565b8063715018a6116100d1578063715018a61461018a5780638da5cb5b14610194578063a19ed39d146101b2578063a4475ce4146101bc576100fe565b806321eff7fc146101025780633ccfd60b146101325780633fb238651461013c57806342e94c901461015a575b5f80fd5b61011c60048036038101906101179190610d54565b6102c6565b6040516101299190610d97565b60405180910390f35b61013a61030c565b005b6101446105b2565b6040516101519190610e23565b60405180910390f35b610174600480360381019061016f9190610d54565b6105c4565b6040516101819190610d97565b60405180910390f35b6101926105d9565b005b61019c6105ec565b6040516101a99190610e4b565b60405180910390f35b6101ba610613565b005b6101c4610789565b6040516101d19190610e4b565b60405180910390f35b6101e26107ae565b6040516101ef9190610ebf565b60405180910390f35b610212600480360381019061020d9190610f02565b6107d4565b005b61021c610ac2565b6040516102299190610d97565b60405180910390f35b61023a610acb565b6040516102479190610f4d565b60405180910390f35b610258610af0565b6040516102659190610d97565b60405180910390f35b61028860048036038101906102839190610d54565b610b17565b005b610292610b9b565b60405161029f9190610d97565b60405180910390f35b6102b0610ba1565b6040516102bd9190610d97565b60405180910390f35b5f60055f8373ffffffffffffffffffffffffffffffffffffffff1673ffffffffffffffffffffffffffffffffffffffff1681526020019081526020015f20549050919050565b60015f9054906101000a900473ffffffffffffffffffffffffffffffffffffffff1673ffffffffffffffffffffffffffffffffffffffff163373ffffffffffffffffffffffffffffffffffffffff161461039b576040517f08c379a000000000000000000000000000000000000000000000000000000000815260040161039290610fc0565b60405180910390fd5b600160028111156103af576103ae610db0565b5b60065f9054906101000a900460ff1660028111156103d0576103cf610db0565b5b14610410576040517f08c379a000000000000000000000000000000000000000000000000000000000815260040161040790611028565b60405180910390fd5b600660019054906101000a900473ffffffffffffffffffffffffffffffffffffffff1673ffffffffffffffffffffffffffffffffffffffff16632e1a7d4d6004546040518263ffffffff1660e01b815260040161046d9190610d97565b5f604051808303815f87803b158015610484575f80fd5b505af1158015610496573d5f803e3d5ffd5b5050505060025f9054906101000a900473ffffffffffffffffffffffffffffffffffffffff1673ffffffffffffffffffffffffffffffffffffffff1663a9059cbb60015f9054906101000a900473ffffffffffffffffffffffffffffffffffffffff166004546040518363ffffffff1660e01b8152600401610519929190611046565b6020604051808303815f875af1158015610535573d5f803e3d5ffd5b505050506040513d601f19601f8201168201806040525081019061055991906110a2565b50600260065f6101000a81548160ff0219169083600281111561057f5761057e610db0565b5b02179055507fdb780f9dea39c8989045a6757dc47c885201e096018f863c1a76233128da603660405160405180910390a1565b60065f9054906101000a900460ff1681565b6005602052805f5260405f205f915090505481565b6105e1610ba7565b6105ea5f610c2e565b565b5f805f9054906101000a900473ffffffffffffffffffffffffffffffffffffffff16905090565b60015f9054906101000a900473ffffffffffffffffffffffffffffffffffffffff1673ffffffffffffffffffffffffffffffffffffffff163373ffffffffffffffffffffffffffffffffffffffff16146106a2576040517f08c379a000000000000000000000000000000000000000000000000000000000815260040161069990610fc0565b60405180910390fd5b60035460045410156106e9576040517f08c379a00000000000000000000000000000000000000000000000000000000081526004016106e090611117565b60405180910390fd5b5f60028111156106fc576106fb610db0565b5b60065f9054906101000a900460ff16600281111561071d5761071c610db0565b5b1461075d576040517f08c379a00000000000000000000000000000000000000000000000000000000081526004016107549061117f565b60405180910390fd5b600160065f6101000a81548160ff0219169083600281111561078257610781610db0565b5b0217905550565b60015f9054906101000a900473ffffffffffffffffffffffffffffffffffffffff1681565b600660019054906101000a900473ffffffffffffffffffffffffffffffffffffffff1681565b5f60028111156107e7576107e6610db0565b5b60065f9054906101000a900460ff16600281111561080857610807610db0565b5b14610848576040517f08c379a000000000000000000000000000000000000000000000000000000000815260040161083f9061117f565b60405180910390fd5b5f811161088a576040517f08c379a0000000000000000000000000000000000000000000000000000000008152600401610881906111e7565b60405180910390fd5b60025f9054906101000a900473ffffffffffffffffffffffffffffffffffffffff1673ffffffffffffffffffffffffffffffffffffffff166323b872dd33600660019054906101000a900473ffffffffffffffffffffffffffffffffffffffff16846040518463ffffffff1660e01b815260040161090a93929190611205565b6020604051808303815f875af1158015610926573d5f803e3d5ffd5b505050506040513d601f19601f8201168201806040525081019061094a91906110a2565b50600660019054906101000a900473ffffffffffffffffffffffffffffffffffffffff1673ffffffffffffffffffffffffffffffffffffffff1663b6b55f25826040518263ffffffff1660e01b81526004016109a69190610d97565b5f604051808303815f87803b1580156109bd575f80fd5b505af11580156109cf573d5f803e3d5ffd5b505050508060055f3373ffffffffffffffffffffffffffffffffffffffff1673ffffffffffffffffffffffffffffffffffffffff1681526020019081526020015f2054610a1c9190611267565b60055f3373ffffffffffffffffffffffffffffffffffffffff1673ffffffffffffffffffffffffffffffffffffffff1681526020019081526020015f208190555080600454610a6b9190611267565b6004819055503373ffffffffffffffffffffffffffffffffffffffff167f1bb460ccaaf70fbacfec17a376f8acbd278c1405590ffcc8ebe4b88daf4f64ad82604051610ab79190610d97565b60405180910390a250565b5f600354905090565b60025f9054906101000a900473ffffffffffffffffffffffffffffffffffffffff1681565b5f60065f9054906101000a900460ff166002811115610b1257610b11610db0565b5b905090565b610b1f610ba7565b5f73ffffffffffffffffffffffffffffffffffffffff168173ffffffffffffffffffffffffffffffffffffffff1603610b8f575f6040517f1e4fbdf7000000000000000000000000000000000000000000000000000000008152600401610b869190610e4b565b60405180910390fd5b610b9881610c2e565b50565b60035481565b60045481565b610baf610cef565b73ffffffffffffffffffffffffffffffffffffffff16610bcd6105ec565b73ffffffffffffffffffffffffffffffffffffffff1614610c2c57610bf0610cef565b6040517f118cdaa7000000000000000000000000000000000000000000000000000000008152600401610c239190610e4b565b60405180910390fd5b565b5f805f9054906101000a900473ffffffffffffffffffffffffffffffffffffffff169050815f806101000a81548173ffffffffffffffffffffffffffffffffffffffff021916908373ffffffffffffffffffffffffffffffffffffffff1602179055508173ffffffffffffffffffffffffffffffffffffffff168173ffffffffffffffffffffffffffffffffffffffff167f8be0079c531659141344cd1fd0a4f28419497f9722a3daafe3b4186f6b6457e060405160405180910390a35050565b5f33905090565b5f80fd5b5f73ffffffffffffffffffffffffffffffffffffffff82169050919050565b5f610d2382610cfa565b9050919050565b610d3381610d19565b8114610d3d575f80fd5b50565b5f81359050610d4e81610d2a565b92915050565b5f60208284031215610d6957610d68610cf6565b5b5f610d7684828501610d40565b91505092915050565b5f819050919050565b610d9181610d7f565b82525050565b5f602082019050610daa5f830184610d88565b92915050565b7f4e487b71000000000000000000000000000000000000000000000000000000005f52602160045260245ffd5b60038110610dee57610ded610db0565b5b50565b5f819050610dfe82610ddd565b919050565b5f610e0d82610df1565b9050919050565b610e1d81610e03565b82525050565b5f602082019050610e365f830184610e14565b92915050565b610e4581610d19565b82525050565b5f602082019050610e5e5f830184610e3c565b92915050565b5f819050919050565b5f610e87610e82610e7d84610cfa565b610e64565b610cfa565b9050919050565b5f610e9882610e6d565b9050919050565b5f610ea982610e8e565b9050919050565b610eb981610e9f565b82525050565b5f602082019050610ed25f830184610eb0565b92915050565b610ee181610d7f565b8114610eeb575f80fd5b50565b5f81359050610efc81610ed8565b92915050565b5f60208284031215610f1757610f16610cf6565b5b5f610f2484828501610eee565b91505092915050565b5f610f3782610e8e565b9050919050565b610f4781610f2d565b82525050565b5f602082019050610f605f830184610f3e565b92915050565b5f82825260208201905092915050565b7f4e6f74207468652070726f6a656374206f776e657200000000000000000000005f82015250565b5f610faa601583610f66565b9150610fb582610f76565b602082019050919050565b5f6020820190508181035f830152610fd781610f9e565b9050919050565b7f46756e64696e67206e6f7420636c6f73656400000000000000000000000000005f82015250565b5f611012601283610f66565b915061101d82610fde565b602082019050919050565b5f6020820190508181035f83015261103f81611006565b9050919050565b5f6040820190506110595f830185610e3c565b6110666020830184610d88565b9392505050565b5f8115159050919050565b6110818161106d565b811461108b575f80fd5b50565b5f8151905061109c81611078565b92915050565b5f602082840312156110b7576110b6610cf6565b5b5f6110c48482850161108e565b91505092915050565b7f5461726765742066756e64696e67206e6f7420726561636865640000000000005f82015250565b5f611101601a83610f66565b915061110c826110cd565b602082019050919050565b5f6020820190508181035f83015261112e816110f5565b9050919050565b7f46756e64696e67206e6f74206f70656e000000000000000000000000000000005f82015250565b5f611169601083610f66565b915061117482611135565b602082019050919050565b5f6020820190508181035f8301526111968161115d565b9050919050565b7f416d6f756e74206d7573742062652067726561746572207468616e20300000005f82015250565b5f6111d1601d83610f66565b91506111dc8261119d565b602082019050919050565b5f6020820190508181035f8301526111fe816111c5565b9050919050565b5f6060820190506112185f830186610e3c565b6112256020830185610e3c565b6112326040830184610d88565b949350505050565b7f4e487b71000000000000000000000000000000000000000000000000000000005f52601160045260245ffd5b5f61127182610d7f565b915061127c83610d7f565b92508282019050808211156112945761129361123a565b5b9291505056fea264697066735822122023de3ce33ef0498d15fc8d5e406a2c1745fd11f4fa33797b8c081e8b590c2f7264736f6c63430008140033",
  "immutableReferences": {},
  "source": "// SPDX-License-Identifier: MIT\r\npragma solidity ^0.8.0;\r\n\r\nimport \"@openzeppelin/contracts/token/ERC20/IERC20.sol\";\r\nimport \"./AaveVault.sol\";\r\nimport \"../contracts/interfaces/ICrowdfunding.sol\";\r\n\r\nenum FundingStatus {\r\n    Open,\r\n    Closed,\r\n    Finalized\r\n}\r\n\r\ncontract Crowdfunding is ICrowdfunding, Ownable {\r\n\r\n    address public projectOwner;\r\n    IERC20 public stablecoin;\r\n    uint256 public targetFunding;\r\n    uint256 public totalFunding;\r\n    mapping(address => uint256) public contributions;\r\n    FundingStatus public fundingStatus;\r\n    AaveVault public aaveVault; // New AaveVault instance\r\n\r\n    event ContributionReceived(address indexed contributor, uint256 amount);\r\n    event FundingFinalized();\r\n\r\n    modifier onlyProjectOwner() {\r\n        require(msg.sender == projectOwner, \"Not the project owner\");\r\n        _;\r\n    }\r\n\r\n    modifier onlyOpenFunding() {\r\n        require(fundingStatus == FundingStatus.Open, \"Funding not open\");\r\n        _;\r\n    }\r\n\r\n    constructor (\r\n        address _projectOwner,\r\n        IERC20 _stablecoin,\r\n        uint256 _targetFunding,\r\n        AaveVault _aaveVault // Pass AaveVault instance as a parameter\r\n    ) Ownable(msg.sender) {\r\n        projectOwner = _projectOwner;\r\n        stablecoin = _stablecoin;\r\n        targetFunding = _targetFunding;\r\n        fundingStatus = FundingStatus.Open;\r\n        aaveVault = _aaveVault; // Set the AaveVault instance\r\n    }\r\n\r\n    function contribute(uint256 amount) external override onlyOpenFunding {\r\n        require(amount > 0, \"Amount must be greater than 0\");\r\n\r\n        // Transfer stablecoin from contributor to the AaveVault\r\n        stablecoin.transferFrom(msg.sender, address(aaveVault), amount);\r\n\r\n        // Deposit into AaveVault\r\n        aaveVault.deposit(amount);\r\n\r\n        // Update contribution and total funding\r\n        contributions[msg.sender] = contributions[msg.sender] + amount;\r\n        totalFunding = totalFunding + amount;\r\n\r\n        emit ContributionReceived(msg.sender, amount);\r\n    }\r\n\r\n    function withdraw() external override onlyProjectOwner {\r\n        require(fundingStatus == FundingStatus.Closed, \"Funding not closed\");\r\n\r\n        // Withdraw from AaveVault\r\n        aaveVault.withdraw(totalFunding);\r\n\r\n        // Transfer total funding to the project owner\r\n        stablecoin.transfer(projectOwner, totalFunding);\r\n\r\n        // Update funding status to Finalized\r\n        fundingStatus = FundingStatus.Finalized;\r\n\r\n        emit FundingFinalized();\r\n    }\r\n\r\n    function getContribution(address contributor) external view override returns (uint256) {\r\n        return contributions[contributor];\r\n    }\r\n\r\n    function getFundingStatus() external view override returns (uint256) {\r\n        return uint256(fundingStatus);\r\n    }\r\n\r\n    function getTargetFunding() external view override returns (uint256) {\r\n        return targetFunding;\r\n    }\r\n\r\n    function finalizeFunding() external override onlyProjectOwner {\r\n        require(totalFunding >= targetFunding, \"Target funding not reached\");\r\n        require(fundingStatus == FundingStatus.Open, \"Funding not open\");\r\n\r\n        // Update funding status to Closed\r\n        fundingStatus = FundingStatus.Closed;\r\n    }\r\n}\r\n",
  "sourcePath": "C:\\Users\\tassm\\Documents\\eth_fund\\contracts\\Crowdfunding.sol",
  "compiler": {
    "name": "solc",
    "version": "0.8.20+commit.a1b79de6.Emscripten.clang"
  },
  "schemaVersion": "3.4.14",
  "updatedAt": "2024-01-19T03:24:00.344Z",
  "devdoc": {
    "errors": {
      "OwnableInvalidOwner(address)": [
        {
          "details": "The owner is not a valid owner account. (eg. `address(0)`)"
        }
      ],
      "OwnableUnauthorizedAccount(address)": [
        {
          "details": "The caller account is not authorized to perform an operation."
        }
      ]
    },
    "kind": "dev",
    "methods": {
      "owner()": {
        "details": "Returns the address of the current owner."
      },
      "renounceOwnership()": {
        "details": "Leaves the contract without owner. It will not be possible to call `onlyOwner` functions. Can only be called by the current owner. NOTE: Renouncing ownership will leave the contract without an owner, thereby disabling any functionality that is only available to the owner."
      },
      "transferOwnership(address)": {
        "details": "Transfers ownership of the contract to a new account (`newOwner`). Can only be called by the current owner."
      }
    },
    "version": 1
  },
  "userdoc": {
    "kind": "user",
    "methods": {},
    "version": 1
  }
}