{
  "contractName": "CrowdfundingFactory",
  "abi": [
    {
      "inputs": [],
      "stateMutability": "nonpayable",
      "type": "constructor"
    },
    {
      "inputs": [
        {
          "internalType": "address",
          "name": "owner",
          "type": "address"
        }
      ],
      "name": "OwnableInvalidOwner",
      "type": "error"
    },
    {
      "inputs": [
        {
          "internalType": "address",
          "name": "account",
          "type": "address"
        }
      ],
      "name": "OwnableUnauthorizedAccount",
      "type": "error"
    },
    {
      "anonymous": false,
      "inputs": [
        {
          "indexed": true,
          "internalType": "address",
          "name": "crowdfunding",
          "type": "address"
        },
        {
          "indexed": true,
          "internalType": "address",
          "name": "projectOwner",
          "type": "address"
        }
      ],
      "name": "CrowdfundingCreated",
      "type": "event"
    },
    {
      "anonymous": false,
      "inputs": [
        {
          "indexed": true,
          "internalType": "address",
          "name": "previousOwner",
          "type": "address"
        },
        {
          "indexed": true,
          "internalType": "address",
          "name": "newOwner",
          "type": "address"
        }
      ],
      "name": "OwnershipTransferred",
      "type": "event"
    },
    {
      "inputs": [
        {
          "internalType": "uint256",
          "name": "",
          "type": "uint256"
        }
      ],
      "name": "allCrowdfundings",
      "outputs": [
        {
          "internalType": "address",
          "name": "",
          "type": "address"
        }
      ],
      "stateMutability": "view",
      "type": "function"
    },
    {
      "inputs": [],
      "name": "owner",
      "outputs": [
        {
          "internalType": "address",
          "name": "",
          "type": "address"
        }
      ],
      "stateMutability": "view",
      "type": "function"
    },
    {
      "inputs": [],
      "name": "renounceOwnership",
      "outputs": [],
      "stateMutability": "nonpayable",
      "type": "function"
    },
    {
      "inputs": [
        {
          "internalType": "address",
          "name": "newOwner",
          "type": "address"
        }
      ],
      "name": "transferOwnership",
      "outputs": [],
      "stateMutability": "nonpayable",
      "type": "function"
    },
    {
      "inputs": [
        {
          "internalType": "contract IERC20",
          "name": "_stablecoin",
          "type": "address"
        },
        {
          "internalType": "uint256",
          "name": "_targetFunding",
          "type": "uint256"
        },
        {
          "internalType": "contract IPool",
          "name": "_lendingPool",
          "type": "address"
        },
        {
          "internalType": "address",
          "name": "_priceFeedAddress",
          "type": "address"
        }
      ],
      "name": "createCrowdfunding",
      "outputs": [
        {
          "internalType": "contract Crowdfunding",
          "name": "",
          "type": "address"
        }
      ],
      "stateMutability": "nonpayable",
      "type": "function"
    },
    {
      "inputs": [],
      "name": "getAllCrowdfundings",
      "outputs": [
        {
          "internalType": "address[]",
          "name": "",
          "type": "address[]"
        }
      ],
      "stateMutability": "view",
      "type": "function"
    }
  ],
  "bytecode": "0x608060405234801561000f575f80fd5b50335f73ffffffffffffffffffffffffffffffffffffffff168173ffffffffffffffffffffffffffffffffffffffff1603610081575f6040517f1e4fbdf70000000000000000000000000000000000000000000000000000000081526004016100789190610196565b60405180910390fd5b6100908161009660201b60201c565b506101af565b5f805f9054906101000a900473ffffffffffffffffffffffffffffffffffffffff169050815f806101000a81548173ffffffffffffffffffffffffffffffffffffffff021916908373ffffffffffffffffffffffffffffffffffffffff1602179055508173ffffffffffffffffffffffffffffffffffffffff168173ffffffffffffffffffffffffffffffffffffffff167f8be0079c531659141344cd1fd0a4f28419497f9722a3daafe3b4186f6b6457e060405160405180910390a35050565b5f73ffffffffffffffffffffffffffffffffffffffff82169050919050565b5f61018082610157565b9050919050565b61019081610176565b82525050565b5f6020820190506101a95f830184610187565b92915050565b6133d1806101bc5f395ff3fe608060405234801562000010575f80fd5b506004361062000068575f3560e01c80634640dfa4146200006c578063715018a614620000a25780638da5cb5b14620000ae57806395e0977f14620000d0578063ba12ded41462000106578063f2fde38b1462000128575b5f80fd5b6200008a6004803603810190620000849190620005d8565b62000148565b6040516200009991906200064b565b60405180910390f35b620000ac62000184565b005b620000b86200019b565b604051620000c791906200064b565b60405180910390f35b620000ee6004803603810190620000e8919062000719565b620001c2565b604051620000fd9190620007ef565b60405180910390f35b6200011062000310565b6040516200011f9190620008d1565b60405180910390f35b620001466004803603810190620001409190620008f3565b6200039d565b005b6001818154811062000158575f80fd5b905f5260205f20015f915054906101000a900473ffffffffffffffffffffffffffffffffffffffff1681565b6200018e62000428565b620001995f620004b8565b565b5f805f9054906101000a900473ffffffffffffffffffffffffffffffffffffffff16905090565b5f620001cd62000428565b5f838684604051620001df9062000580565b620001ed939291906200096b565b604051809103905ff08015801562000207573d5f803e3d5ffd5b5090505f338787846040516200021d906200058e565b6200022c9493929190620009db565b604051809103905ff08015801562000246573d5f803e3d5ffd5b509050600181908060018154018082558091505060019003905f5260205f20015f9091909190916101000a81548173ffffffffffffffffffffffffffffffffffffffff021916908373ffffffffffffffffffffffffffffffffffffffff1602179055503373ffffffffffffffffffffffffffffffffffffffff168173ffffffffffffffffffffffffffffffffffffffff167f28acd39de5d33029bdd4913b71cb19ec2ff4473682c4d4216e590c5788b8723360405160405180910390a38092505050949350505050565b606060018054806020026020016040519081016040528092919081815260200182805480156200039357602002820191905f5260205f20905b815f9054906101000a900473ffffffffffffffffffffffffffffffffffffffff1673ffffffffffffffffffffffffffffffffffffffff168152602001906001019080831162000349575b5050505050905090565b620003a762000428565b5f73ffffffffffffffffffffffffffffffffffffffff168173ffffffffffffffffffffffffffffffffffffffff16036200041a575f6040517f1e4fbdf70000000000000000000000000000000000000000000000000000000081526004016200041191906200064b565b60405180910390fd5b6200042581620004b8565b50565b6200043262000579565b73ffffffffffffffffffffffffffffffffffffffff16620004526200019b565b73ffffffffffffffffffffffffffffffffffffffff1614620004b6576200047862000579565b6040517f118cdaa7000000000000000000000000000000000000000000000000000000008152600401620004ad91906200064b565b60405180910390fd5b565b5f805f9054906101000a900473ffffffffffffffffffffffffffffffffffffffff169050815f806101000a81548173ffffffffffffffffffffffffffffffffffffffff021916908373ffffffffffffffffffffffffffffffffffffffff1602179055508173ffffffffffffffffffffffffffffffffffffffff168173ffffffffffffffffffffffffffffffffffffffff167f8be0079c531659141344cd1fd0a4f28419497f9722a3daafe3b4186f6b6457e060405160405180910390a35050565b5f33905090565b6112338062000a2783390190565b6117428062001c5a83390190565b5f80fd5b5f819050919050565b620005b481620005a0565b8114620005bf575f80fd5b50565b5f81359050620005d281620005a9565b92915050565b5f60208284031215620005f057620005ef6200059c565b5b5f620005ff84828501620005c2565b91505092915050565b5f73ffffffffffffffffffffffffffffffffffffffff82169050919050565b5f620006338262000608565b9050919050565b620006458162000627565b82525050565b5f602082019050620006605f8301846200063a565b92915050565b5f620006728262000627565b9050919050565b620006848162000666565b81146200068f575f80fd5b50565b5f81359050620006a28162000679565b92915050565b5f620006b48262000627565b9050919050565b620006c681620006a8565b8114620006d1575f80fd5b50565b5f81359050620006e481620006bb565b92915050565b620006f58162000627565b811462000700575f80fd5b50565b5f813590506200071381620006ea565b92915050565b5f805f80608085870312156200073457620007336200059c565b5b5f620007438782880162000692565b94505060206200075687828801620005c2565b93505060406200076987828801620006d4565b92505060606200077c8782880162000703565b91505092959194509250565b5f819050919050565b5f620007b1620007ab620007a58462000608565b62000788565b62000608565b9050919050565b5f620007c48262000791565b9050919050565b5f620007d782620007b8565b9050919050565b620007e981620007cb565b82525050565b5f602082019050620008045f830184620007de565b92915050565b5f81519050919050565b5f82825260208201905092915050565b5f819050602082019050919050565b6200083e8162000627565b82525050565b5f62000851838362000833565b60208301905092915050565b5f602082019050919050565b5f62000875826200080a565b62000881818562000814565b93506200088e8362000824565b805f5b83811015620008c4578151620008a8888262000844565b9750620008b5836200085d565b92505060018101905062000891565b5085935050505092915050565b5f6020820190508181035f830152620008eb818462000869565b905092915050565b5f602082840312156200090b576200090a6200059c565b5b5f6200091a8482850162000703565b91505092915050565b5f6200092f82620007b8565b9050919050565b620009418162000923565b82525050565b5f6200095382620007b8565b9050919050565b620009658162000947565b82525050565b5f606082019050620009805f83018662000936565b6200098f60208301856200095a565b6200099e60408301846200063a565b949350505050565b620009b181620005a0565b82525050565b5f620009c382620007b8565b9050919050565b620009d581620009b7565b82525050565b5f608082019050620009f05f8301876200063a565b620009ff60208301866200095a565b62000a0e6040830185620009a6565b62000a1d6060830184620009ca565b9594505050505056fe608060405234801562000010575f80fd5b50604051620012333803806200123383398181016040528101906200003691906200032f565b335f73ffffffffffffffffffffffffffffffffffffffff168173ffffffffffffffffffffffffffffffffffffffff1603620000aa575f6040517f1e4fbdf7000000000000000000000000000000000000000000000000000000008152600401620000a1919062000399565b60405180910390fd5b620000bb816200018560201b60201c565b508260015f6101000a81548173ffffffffffffffffffffffffffffffffffffffff021916908373ffffffffffffffffffffffffffffffffffffffff1602179055508160025f6101000a81548173ffffffffffffffffffffffffffffffffffffffff021916908373ffffffffffffffffffffffffffffffffffffffff1602179055508060035f6101000a81548173ffffffffffffffffffffffffffffffffffffffff021916908373ffffffffffffffffffffffffffffffffffffffff160217905550505050620003b4565b5f805f9054906101000a900473ffffffffffffffffffffffffffffffffffffffff169050815f806101000a81548173ffffffffffffffffffffffffffffffffffffffff021916908373ffffffffffffffffffffffffffffffffffffffff1602179055508173ffffffffffffffffffffffffffffffffffffffff168173ffffffffffffffffffffffffffffffffffffffff167f8be0079c531659141344cd1fd0a4f28419497f9722a3daafe3b4186f6b6457e060405160405180910390a35050565b5f80fd5b5f73ffffffffffffffffffffffffffffffffffffffff82169050919050565b5f62000275826200024a565b9050919050565b5f620002888262000269565b9050919050565b6200029a816200027c565b8114620002a5575f80fd5b50565b5f81519050620002b8816200028f565b92915050565b5f620002ca8262000269565b9050919050565b620002dc81620002be565b8114620002e7575f80fd5b50565b5f81519050620002fa81620002d1565b92915050565b6200030b8162000269565b811462000316575f80fd5b50565b5f81519050620003298162000300565b92915050565b5f805f6060848603121562000349576200034862000246565b5b5f6200035886828701620002a8565b93505060206200036b86828701620002ea565b92505060406200037e8682870162000319565b9150509250925092565b620003938162000269565b82525050565b5f602082019050620003ae5f83018462000388565b92915050565b610e7180620003c25f395ff3fe608060405234801561000f575f80fd5b5060043610610091575f3560e01c80638da5cb5b116100645780638da5cb5b146100f7578063a59a997314610115578063b6b55f2514610133578063e9cbd8221461014f578063f2fde38b1461016d57610091565b806312065fe0146100955780632e1a7d4d146100b3578063715018a6146100cf578063741bef1a146100d9575b5f80fd5b61009d610189565b6040516100aa919061087b565b60405180910390f35b6100cd60048036038101906100c891906108c2565b610228565b005b6100d7610335565b005b6100e1610348565b6040516100ee9190610967565b60405180910390f35b6100ff61036d565b60405161010c91906109a0565b60405180910390f35b61011d610394565b60405161012a91906109d9565b60405180910390f35b61014d600480360381019061014891906108c2565b6103b9565b005b61015761057f565b6040516101649190610a12565b60405180910390f35b61018760048036038101906101829190610a55565b6105a4565b005b5f60025f9054906101000a900473ffffffffffffffffffffffffffffffffffffffff1673ffffffffffffffffffffffffffffffffffffffff166370a08231306040518263ffffffff1660e01b81526004016101e491906109a0565b602060405180830381865afa1580156101ff573d5f803e3d5ffd5b505050506040513d601f19601f820116820180604052508101906102239190610a94565b905090565b610230610628565b5f8111610272576040517f08c379a000000000000000000000000000000000000000000000000000000000815260040161026990610b19565b60405180910390fd5b60015f9054906101000a900473ffffffffffffffffffffffffffffffffffffffff1673ffffffffffffffffffffffffffffffffffffffff166369328dec60025f9054906101000a900473ffffffffffffffffffffffffffffffffffffffff1683306040518463ffffffff1660e01b81526004016102f193929190610b37565b6020604051808303815f875af115801561030d573d5f803e3d5ffd5b505050506040513d601f19601f820116820180604052508101906103319190610a94565b5050565b61033d610628565b6103465f6106af565b565b60035f9054906101000a900473ffffffffffffffffffffffffffffffffffffffff1681565b5f805f9054906101000a900473ffffffffffffffffffffffffffffffffffffffff16905090565b60015f9054906101000a900473ffffffffffffffffffffffffffffffffffffffff1681565b6103c1610628565b5f8111610403576040517f08c379a00000000000000000000000000000000000000000000000000000000081526004016103fa90610b19565b60405180910390fd5b5f61040d82610770565b905060025f9054906101000a900473ffffffffffffffffffffffffffffffffffffffff1673ffffffffffffffffffffffffffffffffffffffff1663095ea7b360015f9054906101000a900473ffffffffffffffffffffffffffffffffffffffff16836040518363ffffffff1660e01b815260040161048c929190610b6c565b6020604051808303815f875af11580156104a8573d5f803e3d5ffd5b505050506040513d601f19601f820116820180604052508101906104cc9190610bc8565b5060015f9054906101000a900473ffffffffffffffffffffffffffffffffffffffff1673ffffffffffffffffffffffffffffffffffffffff1663e8eda9df60025f9054906101000a900473ffffffffffffffffffffffffffffffffffffffff1683305f6040518563ffffffff1660e01b815260040161054e9493929190610c39565b5f604051808303815f87803b158015610565575f80fd5b505af1158015610577573d5f803e3d5ffd5b505050505050565b60025f9054906101000a900473ffffffffffffffffffffffffffffffffffffffff1681565b6105ac610628565b5f73ffffffffffffffffffffffffffffffffffffffff168173ffffffffffffffffffffffffffffffffffffffff160361061c575f6040517f1e4fbdf700000000000000000000000000000000000000000000000000000000815260040161061391906109a0565b60405180910390fd5b610625816106af565b50565b61063061085c565b73ffffffffffffffffffffffffffffffffffffffff1661064e61036d565b73ffffffffffffffffffffffffffffffffffffffff16146106ad5761067161085c565b6040517f118cdaa70000000000000000000000000000000000000000000000000000000081526004016106a491906109a0565b60405180910390fd5b565b5f805f9054906101000a900473ffffffffffffffffffffffffffffffffffffffff169050815f806101000a81548173ffffffffffffffffffffffffffffffffffffffff021916908373ffffffffffffffffffffffffffffffffffffffff1602179055508173ffffffffffffffffffffffffffffffffffffffff168173ffffffffffffffffffffffffffffffffffffffff167f8be0079c531659141344cd1fd0a4f28419497f9722a3daafe3b4186f6b6457e060405160405180910390a35050565b5f8060035f9054906101000a900473ffffffffffffffffffffffffffffffffffffffff1673ffffffffffffffffffffffffffffffffffffffff1663feaf968c6040518163ffffffff1660e01b815260040160a060405180830381865afa1580156107dc573d5f803e3d5ffd5b505050506040513d601f19601f820116820180604052508101906108009190610cee565b5050509150505f8113610848576040517f08c379a000000000000000000000000000000000000000000000000000000000815260040161083f90610daf565b60405180910390fd5b80836108549190610dfa565b915050919050565b5f33905090565b5f819050919050565b61087581610863565b82525050565b5f60208201905061088e5f83018461086c565b92915050565b5f80fd5b6108a181610863565b81146108ab575f80fd5b50565b5f813590506108bc81610898565b92915050565b5f602082840312156108d7576108d6610894565b5b5f6108e4848285016108ae565b91505092915050565b5f73ffffffffffffffffffffffffffffffffffffffff82169050919050565b5f819050919050565b5f61092f61092a610925846108ed565b61090c565b6108ed565b9050919050565b5f61094082610915565b9050919050565b5f61095182610936565b9050919050565b61096181610947565b82525050565b5f60208201905061097a5f830184610958565b92915050565b5f61098a826108ed565b9050919050565b61099a81610980565b82525050565b5f6020820190506109b35f830184610991565b92915050565b5f6109c382610936565b9050919050565b6109d3816109b9565b82525050565b5f6020820190506109ec5f8301846109ca565b92915050565b5f6109fc82610936565b9050919050565b610a0c816109f2565b82525050565b5f602082019050610a255f830184610a03565b92915050565b610a3481610980565b8114610a3e575f80fd5b50565b5f81359050610a4f81610a2b565b92915050565b5f60208284031215610a6a57610a69610894565b5b5f610a7784828501610a41565b91505092915050565b5f81519050610a8e81610898565b92915050565b5f60208284031215610aa957610aa8610894565b5b5f610ab684828501610a80565b91505092915050565b5f82825260208201905092915050565b7f416d6f756e74206d7573742062652067726561746572207468616e20300000005f82015250565b5f610b03601d83610abf565b9150610b0e82610acf565b602082019050919050565b5f6020820190508181035f830152610b3081610af7565b9050919050565b5f606082019050610b4a5f830186610991565b610b57602083018561086c565b610b646040830184610991565b949350505050565b5f604082019050610b7f5f830185610991565b610b8c602083018461086c565b9392505050565b5f8115159050919050565b610ba781610b93565b8114610bb1575f80fd5b50565b5f81519050610bc281610b9e565b92915050565b5f60208284031215610bdd57610bdc610894565b5b5f610bea84828501610bb4565b91505092915050565b5f819050919050565b5f61ffff82169050919050565b5f610c23610c1e610c1984610bf3565b61090c565b610bfc565b9050919050565b610c3381610c09565b82525050565b5f608082019050610c4c5f830187610991565b610c59602083018661086c565b610c666040830185610991565b610c736060830184610c2a565b95945050505050565b5f69ffffffffffffffffffff82169050919050565b610c9a81610c7c565b8114610ca4575f80fd5b50565b5f81519050610cb581610c91565b92915050565b5f819050919050565b610ccd81610cbb565b8114610cd7575f80fd5b50565b5f81519050610ce881610cc4565b92915050565b5f805f805f60a08688031215610d0757610d06610894565b5b5f610d1488828901610ca7565b9550506020610d2588828901610cda565b9450506040610d3688828901610a80565b9350506060610d4788828901610a80565b9250506080610d5888828901610ca7565b9150509295509295909350565b7f496e76616c69642070726963652066726f6d20436861696e6c696e6b000000005f82015250565b5f610d99601c83610abf565b9150610da482610d65565b602082019050919050565b5f6020820190508181035f830152610dc681610d8d565b9050919050565b7f4e487b71000000000000000000000000000000000000000000000000000000005f52601160045260245ffd5b5f610e0482610863565b9150610e0f83610863565b9250828202610e1d81610863565b91508282048414831517610e3457610e33610dcd565b5b509291505056fea26469706673582212207007ce49a1e90edb84588b9514ed00773a71a37d9d8203cd967d767ee089298064736f6c63430008140033608060405234801562000010575f80fd5b50604051620017423803806200174283398181016040528101906200003691906200039c565b335f73ffffffffffffffffffffffffffffffffffffffff168173ffffffffffffffffffffffffffffffffffffffff1603620000aa575f6040517f1e4fbdf7000000000000000000000000000000000000000000000000000000008152600401620000a191906200041c565b60405180910390fd5b620000bb81620001ba60201b60201c565b508360015f6101000a81548173ffffffffffffffffffffffffffffffffffffffff021916908373ffffffffffffffffffffffffffffffffffffffff1602179055508260025f6101000a81548173ffffffffffffffffffffffffffffffffffffffff021916908373ffffffffffffffffffffffffffffffffffffffff160217905550816003819055505f60065f6101000a81548160ff021916908360028111156200016a576200016962000437565b5b021790555080600660016101000a81548173ffffffffffffffffffffffffffffffffffffffff021916908373ffffffffffffffffffffffffffffffffffffffff1602179055505050505062000464565b5f805f9054906101000a900473ffffffffffffffffffffffffffffffffffffffff169050815f806101000a81548173ffffffffffffffffffffffffffffffffffffffff021916908373ffffffffffffffffffffffffffffffffffffffff1602179055508173ffffffffffffffffffffffffffffffffffffffff168173ffffffffffffffffffffffffffffffffffffffff167f8be0079c531659141344cd1fd0a4f28419497f9722a3daafe3b4186f6b6457e060405160405180910390a35050565b5f80fd5b5f73ffffffffffffffffffffffffffffffffffffffff82169050919050565b5f620002aa826200027f565b9050919050565b620002bc816200029e565b8114620002c7575f80fd5b50565b5f81519050620002da81620002b1565b92915050565b5f620002ec826200029e565b9050919050565b620002fe81620002e0565b811462000309575f80fd5b50565b5f815190506200031c81620002f3565b92915050565b5f819050919050565b620003368162000322565b811462000341575f80fd5b50565b5f8151905062000354816200032b565b92915050565b5f62000366826200029e565b9050919050565b62000378816200035a565b811462000383575f80fd5b50565b5f8151905062000396816200036d565b92915050565b5f805f8060808587031215620003b757620003b66200027b565b5b5f620003c687828801620002ca565b9450506020620003d9878288016200030c565b9350506040620003ec8782880162000344565b9250506060620003ff8782880162000386565b91505092959194509250565b62000416816200029e565b82525050565b5f602082019050620004315f8301846200040b565b92915050565b7f4e487b71000000000000000000000000000000000000000000000000000000005f52602160045260245ffd5b6112d080620004725f395ff3fe608060405234801561000f575f80fd5b50600436106100fe575f3560e01c8063abe2202d11610095578063f2dfc3fc11610064578063f2dfc3fc14610250578063f2fde38b1461026e578063f4d424531461028a578063fe47a8a7146102a8576100fe565b8063abe2202d146101da578063c1cbbca7146101f8578063d6b3798a14610214578063e9cbd82214610232576100fe565b8063715018a6116100d1578063715018a61461018a5780638da5cb5b14610194578063a19ed39d146101b2578063a4475ce4146101bc576100fe565b806321eff7fc146101025780633ccfd60b146101325780633fb238651461013c57806342e94c901461015a575b5f80fd5b61011c60048036038101906101179190610d54565b6102c6565b6040516101299190610d97565b60405180910390f35b61013a61030c565b005b6101446105b2565b6040516101519190610e23565b60405180910390f35b610174600480360381019061016f9190610d54565b6105c4565b6040516101819190610d97565b60405180910390f35b6101926105d9565b005b61019c6105ec565b6040516101a99190610e4b565b60405180910390f35b6101ba610613565b005b6101c4610789565b6040516101d19190610e4b565b60405180910390f35b6101e26107ae565b6040516101ef9190610ebf565b60405180910390f35b610212600480360381019061020d9190610f02565b6107d4565b005b61021c610ac2565b6040516102299190610d97565b60405180910390f35b61023a610acb565b6040516102479190610f4d565b60405180910390f35b610258610af0565b6040516102659190610d97565b60405180910390f35b61028860048036038101906102839190610d54565b610b17565b005b610292610b9b565b60405161029f9190610d97565b60405180910390f35b6102b0610ba1565b6040516102bd9190610d97565b60405180910390f35b5f60055f8373ffffffffffffffffffffffffffffffffffffffff1673ffffffffffffffffffffffffffffffffffffffff1681526020019081526020015f20549050919050565b60015f9054906101000a900473ffffffffffffffffffffffffffffffffffffffff1673ffffffffffffffffffffffffffffffffffffffff163373ffffffffffffffffffffffffffffffffffffffff161461039b576040517f08c379a000000000000000000000000000000000000000000000000000000000815260040161039290610fc0565b60405180910390fd5b600160028111156103af576103ae610db0565b5b60065f9054906101000a900460ff1660028111156103d0576103cf610db0565b5b14610410576040517f08c379a000000000000000000000000000000000000000000000000000000000815260040161040790611028565b60405180910390fd5b600660019054906101000a900473ffffffffffffffffffffffffffffffffffffffff1673ffffffffffffffffffffffffffffffffffffffff16632e1a7d4d6004546040518263ffffffff1660e01b815260040161046d9190610d97565b5f604051808303815f87803b158015610484575f80fd5b505af1158015610496573d5f803e3d5ffd5b5050505060025f9054906101000a900473ffffffffffffffffffffffffffffffffffffffff1673ffffffffffffffffffffffffffffffffffffffff1663a9059cbb60015f9054906101000a900473ffffffffffffffffffffffffffffffffffffffff166004546040518363ffffffff1660e01b8152600401610519929190611046565b6020604051808303815f875af1158015610535573d5f803e3d5ffd5b505050506040513d601f19601f8201168201806040525081019061055991906110a2565b50600260065f6101000a81548160ff0219169083600281111561057f5761057e610db0565b5b02179055507fdb780f9dea39c8989045a6757dc47c885201e096018f863c1a76233128da603660405160405180910390a1565b60065f9054906101000a900460ff1681565b6005602052805f5260405f205f915090505481565b6105e1610ba7565b6105ea5f610c2e565b565b5f805f9054906101000a900473ffffffffffffffffffffffffffffffffffffffff16905090565b60015f9054906101000a900473ffffffffffffffffffffffffffffffffffffffff1673ffffffffffffffffffffffffffffffffffffffff163373ffffffffffffffffffffffffffffffffffffffff16146106a2576040517f08c379a000000000000000000000000000000000000000000000000000000000815260040161069990610fc0565b60405180910390fd5b60035460045410156106e9576040517f08c379a00000000000000000000000000000000000000000000000000000000081526004016106e090611117565b60405180910390fd5b5f60028111156106fc576106fb610db0565b5b60065f9054906101000a900460ff16600281111561071d5761071c610db0565b5b1461075d576040517f08c379a00000000000000000000000000000000000000000000000000000000081526004016107549061117f565b60405180910390fd5b600160065f6101000a81548160ff0219169083600281111561078257610781610db0565b5b0217905550565b60015f9054906101000a900473ffffffffffffffffffffffffffffffffffffffff1681565b600660019054906101000a900473ffffffffffffffffffffffffffffffffffffffff1681565b5f60028111156107e7576107e6610db0565b5b60065f9054906101000a900460ff16600281111561080857610807610db0565b5b14610848576040517f08c379a000000000000000000000000000000000000000000000000000000000815260040161083f9061117f565b60405180910390fd5b5f811161088a576040517f08c379a0000000000000000000000000000000000000000000000000000000008152600401610881906111e7565b60405180910390fd5b60025f9054906101000a900473ffffffffffffffffffffffffffffffffffffffff1673ffffffffffffffffffffffffffffffffffffffff166323b872dd33600660019054906101000a900473ffffffffffffffffffffffffffffffffffffffff16846040518463ffffffff1660e01b815260040161090a93929190611205565b6020604051808303815f875af1158015610926573d5f803e3d5ffd5b505050506040513d601f19601f8201168201806040525081019061094a91906110a2565b50600660019054906101000a900473ffffffffffffffffffffffffffffffffffffffff1673ffffffffffffffffffffffffffffffffffffffff1663b6b55f25826040518263ffffffff1660e01b81526004016109a69190610d97565b5f604051808303815f87803b1580156109bd575f80fd5b505af11580156109cf573d5f803e3d5ffd5b505050508060055f3373ffffffffffffffffffffffffffffffffffffffff1673ffffffffffffffffffffffffffffffffffffffff1681526020019081526020015f2054610a1c9190611267565b60055f3373ffffffffffffffffffffffffffffffffffffffff1673ffffffffffffffffffffffffffffffffffffffff1681526020019081526020015f208190555080600454610a6b9190611267565b6004819055503373ffffffffffffffffffffffffffffffffffffffff167f1bb460ccaaf70fbacfec17a376f8acbd278c1405590ffcc8ebe4b88daf4f64ad82604051610ab79190610d97565b60405180910390a250565b5f600354905090565b60025f9054906101000a900473ffffffffffffffffffffffffffffffffffffffff1681565b5f60065f9054906101000a900460ff166002811115610b1257610b11610db0565b5b905090565b610b1f610ba7565b5f73ffffffffffffffffffffffffffffffffffffffff168173ffffffffffffffffffffffffffffffffffffffff1603610b8f575f6040517f1e4fbdf7000000000000000000000000000000000000000000000000000000008152600401610b869190610e4b565b60405180910390fd5b610b9881610c2e565b50565b60035481565b60045481565b610baf610cef565b73ffffffffffffffffffffffffffffffffffffffff16610bcd6105ec565b73ffffffffffffffffffffffffffffffffffffffff1614610c2c57610bf0610cef565b6040517f118cdaa7000000000000000000000000000000000000000000000000000000008152600401610c239190610e4b565b60405180910390fd5b565b5f805f9054906101000a900473ffffffffffffffffffffffffffffffffffffffff169050815f806101000a81548173ffffffffffffffffffffffffffffffffffffffff021916908373ffffffffffffffffffffffffffffffffffffffff1602179055508173ffffffffffffffffffffffffffffffffffffffff168173ffffffffffffffffffffffffffffffffffffffff167f8be0079c531659141344cd1fd0a4f28419497f9722a3daafe3b4186f6b6457e060405160405180910390a35050565b5f33905090565b5f80fd5b5f73ffffffffffffffffffffffffffffffffffffffff82169050919050565b5f610d2382610cfa565b9050919050565b610d3381610d19565b8114610d3d575f80fd5b50565b5f81359050610d4e81610d2a565b92915050565b5f60208284031215610d6957610d68610cf6565b5b5f610d7684828501610d40565b91505092915050565b5f819050919050565b610d9181610d7f565b82525050565b5f602082019050610daa5f830184610d88565b92915050565b7f4e487b71000000000000000000000000000000000000000000000000000000005f52602160045260245ffd5b60038110610dee57610ded610db0565b5b50565b5f819050610dfe82610ddd565b919050565b5f610e0d82610df1565b9050919050565b610e1d81610e03565b82525050565b5f602082019050610e365f830184610e14565b92915050565b610e4581610d19565b82525050565b5f602082019050610e5e5f830184610e3c565b92915050565b5f819050919050565b5f610e87610e82610e7d84610cfa565b610e64565b610cfa565b9050919050565b5f610e9882610e6d565b9050919050565b5f610ea982610e8e565b9050919050565b610eb981610e9f565b82525050565b5f602082019050610ed25f830184610eb0565b92915050565b610ee181610d7f565b8114610eeb575f80fd5b50565b5f81359050610efc81610ed8565b92915050565b5f60208284031215610f1757610f16610cf6565b5b5f610f2484828501610eee565b91505092915050565b5f610f3782610e8e565b9050919050565b610f4781610f2d565b82525050565b5f602082019050610f605f830184610f3e565b92915050565b5f82825260208201905092915050565b7f4e6f74207468652070726f6a656374206f776e657200000000000000000000005f82015250565b5f610faa601583610f66565b9150610fb582610f76565b602082019050919050565b5f6020820190508181035f830152610fd781610f9e565b9050919050565b7f46756e64696e67206e6f7420636c6f73656400000000000000000000000000005f82015250565b5f611012601283610f66565b915061101d82610fde565b602082019050919050565b5f6020820190508181035f83015261103f81611006565b9050919050565b5f6040820190506110595f830185610e3c565b6110666020830184610d88565b9392505050565b5f8115159050919050565b6110818161106d565b811461108b575f80fd5b50565b5f8151905061109c81611078565b92915050565b5f602082840312156110b7576110b6610cf6565b5b5f6110c48482850161108e565b91505092915050565b7f5461726765742066756e64696e67206e6f7420726561636865640000000000005f82015250565b5f611101601a83610f66565b915061110c826110cd565b602082019050919050565b5f6020820190508181035f83015261112e816110f5565b9050919050565b7f46756e64696e67206e6f74206f70656e000000000000000000000000000000005f82015250565b5f611169601083610f66565b915061117482611135565b602082019050919050565b5f6020820190508181035f8301526111968161115d565b9050919050565b7f416d6f756e74206d7573742062652067726561746572207468616e20300000005f82015250565b5f6111d1601d83610f66565b91506111dc8261119d565b602082019050919050565b5f6020820190508181035f8301526111fe816111c5565b9050919050565b5f6060820190506112185f830186610e3c565b6112256020830185610e3c565b6112326040830184610d88565b949350505050565b7f4e487b71000000000000000000000000000000000000000000000000000000005f52601160045260245ffd5b5f61127182610d7f565b915061127c83610d7f565b92508282019050808211156112945761129361123a565b5b9291505056fea264697066735822122023de3ce33ef0498d15fc8d5e406a2c1745fd11f4fa33797b8c081e8b590c2f7264736f6c63430008140033a2646970667358221220dcc05b87093707c7dc2d3e5139c0b19f004d7f91e2191d887e075e8572d84fe864736f6c63430008140033",
  "immutableReferences": {},
  "source": "// SPDX-License-Identifier: MIT\r\npragma solidity ^0.8.0;\r\n\r\nimport \"@openzeppelin/contracts/access/Ownable.sol\";\r\nimport \"../contracts/interfaces/ICrowdfundingFactory.sol\";\r\nimport \"./Crowdfunding.sol\";\r\nimport \"@aave/core-v3/contracts/interfaces/IPool.sol\";\r\n\r\n\r\ncontract CrowdfundingFactory is ICrowdfundingFactory, Ownable {\r\n    address[] public allCrowdfundings;\r\n\r\n    event CrowdfundingCreated(address indexed crowdfunding, address indexed projectOwner);\r\n\r\n    constructor() Ownable(msg.sender){}\r\n    function createCrowdfunding(\r\n        IERC20 _stablecoin,\r\n        uint256 _targetFunding,\r\n        IPool _lendingPool,\r\n        address _priceFeedAddress\r\n    ) external override onlyOwner returns (Crowdfunding) {\r\n\r\n        AaveVault newAaveVault = new AaveVault(_lendingPool, _stablecoin, _priceFeedAddress);\r\n\r\n\r\n        Crowdfunding newCrowdfunding = new Crowdfunding(msg.sender, _stablecoin, _targetFunding, newAaveVault);\r\n\r\n        allCrowdfundings.push(address(newCrowdfunding));\r\n\r\n        emit CrowdfundingCreated(address(newCrowdfunding), msg.sender);\r\n\r\n        return newCrowdfunding;\r\n    }\r\n\r\n    function getAllCrowdfundings() external view returns (address[] memory) {\r\n        return allCrowdfundings;\r\n    }\r\n}\r\n",
  "sourcePath": "C:\\Users\\tassm\\Documents\\eth_fund\\contracts\\CrowdfundingFactory.sol",
  "compiler": {
    "name": "solc",
    "version": "0.8.20+commit.a1b79de6.Emscripten.clang"
  },
  "schemaVersion": "3.4.14",
  "updatedAt": "2024-01-19T03:24:00.347Z",
  "devdoc": {
    "errors": {
      "OwnableInvalidOwner(address)": [
        {
          "details": "The owner is not a valid owner account. (eg. `address(0)`)"
        }
      ],
      "OwnableUnauthorizedAccount(address)": [
        {
          "details": "The caller account is not authorized to perform an operation."
        }
      ]
    },
    "kind": "dev",
    "methods": {
      "owner()": {
        "details": "Returns the address of the current owner."
      },
      "renounceOwnership()": {
        "details": "Leaves the contract without owner. It will not be possible to call `onlyOwner` functions. Can only be called by the current owner. NOTE: Renouncing ownership will leave the contract without an owner, thereby disabling any functionality that is only available to the owner."
      },
      "transferOwnership(address)": {
        "details": "Transfers ownership of the contract to a new account (`newOwner`). Can only be called by the current owner."
      }
    },
    "version": 1
  },
  "userdoc": {
    "kind": "user",
    "methods": {},
    "version": 1
  }
}